{
    "_format": "hh-sol-artifact-1",
    "contractName": "UniversityContract",
    "sourceName": "contracts/NFTUniversityCertificate.sol",
    "abi": [
        {
            "inputs": [],
            "stateMutability": "nonpayable",
            "type": "constructor"
        },
        {
            "anonymous": false,
            "inputs": [
                {
                    "indexed": true,
                    "internalType": "address",
                    "name": "owner",
                    "type": "address"
                },
                {
                    "indexed": true,
                    "internalType": "address",
                    "name": "approved",
                    "type": "address"
                },
                {
                    "indexed": true,
                    "internalType": "uint256",
                    "name": "tokenId",
                    "type": "uint256"
                }
            ],
            "name": "Approval",
            "type": "event"
        },
        {
            "anonymous": false,
            "inputs": [
                {
                    "indexed": true,
                    "internalType": "address",
                    "name": "owner",
                    "type": "address"
                },
                {
                    "indexed": true,
                    "internalType": "address",
                    "name": "operator",
                    "type": "address"
                },
                {
                    "indexed": false,
                    "internalType": "bool",
                    "name": "approved",
                    "type": "bool"
                }
            ],
            "name": "ApprovalForAll",
            "type": "event"
        },
        {
            "anonymous": false,
            "inputs": [
                {
                    "indexed": true,
                    "internalType": "address",
                    "name": "from",
                    "type": "address"
                },
                {
                    "indexed": true,
                    "internalType": "address",
                    "name": "to",
                    "type": "address"
                },
                {
                    "indexed": true,
                    "internalType": "uint256",
                    "name": "tokenId",
                    "type": "uint256"
                }
            ],
            "name": "Transfer",
            "type": "event"
        },
        {
            "inputs": [
                {
                    "internalType": "address",
                    "name": "",
                    "type": "address"
                }
            ],
            "name": "IssuedDegrees",
            "outputs": [
                {
                    "internalType": "bool",
                    "name": "",
                    "type": "bool"
                }
            ],
            "stateMutability": "view",
            "type": "function"
        },
        {
            "inputs": [
                {
                    "internalType": "address",
                    "name": "",
                    "type": "address"
                }
            ],
            "name": "PersonToDegree",
            "outputs": [
                {
                    "internalType": "string",
                    "name": "",
                    "type": "string"
                }
            ],
            "stateMutability": "view",
            "type": "function"
        },
        {
            "inputs": [
                {
                    "internalType": "address",
                    "name": "_newAddress",
                    "type": "address"
                },
                {
                    "internalType": "string",
                    "name": "_name",
                    "type": "string"
                }
            ],
            "name": "addAddressToWhitelist",
            "outputs": [],
            "stateMutability": "nonpayable",
            "type": "function"
        },
        {
            "inputs": [
                {
                    "internalType": "address",
                    "name": "to",
                    "type": "address"
                },
                {
                    "internalType": "uint256",
                    "name": "tokenId",
                    "type": "uint256"
                }
            ],
            "name": "approve",
            "outputs": [],
            "stateMutability": "nonpayable",
            "type": "function"
        },
        {
            "inputs": [
                {
                    "internalType": "address",
                    "name": "owner",
                    "type": "address"
                }
            ],
            "name": "balanceOf",
            "outputs": [
                {
                    "internalType": "uint256",
                    "name": "",
                    "type": "uint256"
                }
            ],
            "stateMutability": "view",
            "type": "function"
        },
        {
            "inputs": [
                {
                    "internalType": "string",
                    "name": "tokenURI",
                    "type": "string"
                }
            ],
            "name": "claimDegree",
            "outputs": [
                {
                    "internalType": "uint256",
                    "name": "",
                    "type": "uint256"
                }
            ],
            "stateMutability": "nonpayable",
            "type": "function"
        },
        {
            "inputs": [
                {
                    "internalType": "uint256",
                    "name": "tokenId",
                    "type": "uint256"
                }
            ],
            "name": "getApproved",
            "outputs": [
                {
                    "internalType": "address",
                    "name": "",
                    "type": "address"
                }
            ],
            "stateMutability": "view",
            "type": "function"
        },
        {
            "inputs": [
                {
                    "internalType": "address",
                    "name": "owner",
                    "type": "address"
                },
                {
                    "internalType": "address",
                    "name": "operator",
                    "type": "address"
                }
            ],
            "name": "isApprovedForAll",
            "outputs": [
                {
                    "internalType": "bool",
                    "name": "",
                    "type": "bool"
                }
            ],
            "stateMutability": "view",
            "type": "function"
        },
        {
            "inputs": [
                {
                    "internalType": "address",
                    "name": "to",
                    "type": "address"
                }
            ],
            "name": "issueDegree",
            "outputs": [],
            "stateMutability": "nonpayable",
            "type": "function"
        },
        {
            "inputs": [],
            "name": "name",
            "outputs": [
                {
                    "internalType": "string",
                    "name": "",
                    "type": "string"
                }
            ],
            "stateMutability": "view",
            "type": "function"
        },
        {
            "inputs": [],
            "name": "numAddressesWhitelisted",
            "outputs": [
                {
                    "internalType": "uint8",
                    "name": "",
                    "type": "uint8"
                }
            ],
            "stateMutability": "view",
            "type": "function"
        },
        {
            "inputs": [
                {
                    "internalType": "uint256",
                    "name": "tokenId",
                    "type": "uint256"
                }
            ],
            "name": "ownerOf",
            "outputs": [
                {
                    "internalType": "address",
                    "name": "",
                    "type": "address"
                }
            ],
            "stateMutability": "view",
            "type": "function"
        },
        {
            "inputs": [
                {
                    "internalType": "address",
                    "name": "from",
                    "type": "address"
                },
                {
                    "internalType": "address",
                    "name": "to",
                    "type": "address"
                },
                {
                    "internalType": "uint256",
                    "name": "tokenId",
                    "type": "uint256"
                }
            ],
            "name": "safeTransferFrom",
            "outputs": [],
            "stateMutability": "nonpayable",
            "type": "function"
        },
        {
            "inputs": [
                {
                    "internalType": "address",
                    "name": "from",
                    "type": "address"
                },
                {
                    "internalType": "address",
                    "name": "to",
                    "type": "address"
                },
                {
                    "internalType": "uint256",
                    "name": "tokenId",
                    "type": "uint256"
                },
                {
                    "internalType": "bytes",
                    "name": "data",
                    "type": "bytes"
                }
            ],
            "name": "safeTransferFrom",
            "outputs": [],
            "stateMutability": "nonpayable",
            "type": "function"
        },
        {
            "inputs": [
                {
                    "internalType": "address",
                    "name": "operator",
                    "type": "address"
                },
                {
                    "internalType": "bool",
                    "name": "approved",
                    "type": "bool"
                }
            ],
            "name": "setApprovalForAll",
            "outputs": [],
            "stateMutability": "nonpayable",
            "type": "function"
        },
        {
            "inputs": [
                {
                    "internalType": "address",
                    "name": "",
                    "type": "address"
                }
            ],
            "name": "studentName",
            "outputs": [
                {
                    "internalType": "string",
                    "name": "",
                    "type": "string"
                }
            ],
            "stateMutability": "view",
            "type": "function"
        },
        {
            "inputs": [
                {
                    "internalType": "bytes4",
                    "name": "interfaceId",
                    "type": "bytes4"
                }
            ],
            "name": "supportsInterface",
            "outputs": [
                {
                    "internalType": "bool",
                    "name": "",
                    "type": "bool"
                }
            ],
            "stateMutability": "view",
            "type": "function"
        },
        {
            "inputs": [],
            "name": "symbol",
            "outputs": [
                {
                    "internalType": "string",
                    "name": "",
                    "type": "string"
                }
            ],
            "stateMutability": "view",
            "type": "function"
        },
        {
            "inputs": [
                {
                    "internalType": "string",
                    "name": "",
                    "type": "string"
                }
            ],
            "name": "timeAddressAdded",
            "outputs": [
                {
                    "internalType": "uint256",
                    "name": "",
                    "type": "uint256"
                }
            ],
            "stateMutability": "view",
            "type": "function"
        },
        {
            "inputs": [
                {
                    "internalType": "uint256",
                    "name": "tokenId",
                    "type": "uint256"
                }
            ],
            "name": "tokenURI",
            "outputs": [
                {
                    "internalType": "string",
                    "name": "",
                    "type": "string"
                }
            ],
            "stateMutability": "view",
            "type": "function"
        },
        {
            "inputs": [
                {
                    "internalType": "address",
                    "name": "from",
                    "type": "address"
                },
                {
                    "internalType": "address",
                    "name": "to",
                    "type": "address"
                },
                {
                    "internalType": "uint256",
                    "name": "tokenId",
                    "type": "uint256"
                }
            ],
            "name": "transferFrom",
            "outputs": [],
            "stateMutability": "nonpayable",
            "type": "function"
        },
        {
            "inputs": [
                {
                    "internalType": "address",
                    "name": "",
                    "type": "address"
                }
            ],
            "name": "whitelistedAddresses",
            "outputs": [
                {
                    "internalType": "bool",
                    "name": "",
                    "type": "bool"
                }
            ],
            "stateMutability": "view",
            "type": "function"
        }
    ],
    "bytecode": "0x60806040523480156200001157600080fd5b506040518060400160405280601381526020017f4e4654556e6976657273697479446567726565000000000000000000000000008152506040518060400160405280600981526020017f4e46544465677265650000000000000000000000000000000000000000000000815250816000908051906020019062000096929190620000f9565b508060019080519060200190620000af929190620000f9565b50505033600d60006101000a81548173ffffffffffffffffffffffffffffffffffffffff021916908373ffffffffffffffffffffffffffffffffffffffff1602179055506200020e565b8280546200010790620001a9565b90600052602060002090601f0160209004810192826200012b576000855562000177565b82601f106200014657805160ff191683800117855562000177565b8280016001018555821562000177579182015b828111156200017657825182559160200191906001019062000159565b5b5090506200018691906200018a565b5090565b5b80821115620001a55760008160009055506001016200018b565b5090565b60006002820490506001821680620001c257607f821691505b60208210811415620001d957620001d8620001df565b5b50919050565b7f4e487b7100000000000000000000000000000000000000000000000000000000600052602260045260246000fd5b613243806200021e6000396000f3fe608060405234801561001057600080fd5b50600436106101425760003560e01c80636352211e116100b8578063c87b56dd1161007c578063c87b56dd14610399578063cd48622a146103c9578063cf17c716146103f9578063e6d4d21714610429578063e985e9c514610445578063fd8969b81461047557610142565b80636352211e146102e357806370a082311461031357806395d89b4114610343578063a22cb46514610361578063b88d4fde1461037d57610142565b806313b59bed1161010a57806313b59bed1461021157806323b872dd146102415780632db2f4781461025d5780634011d7cd1461028d57806342842e0e146102ab57806349d89ea4146102c757610142565b806301ffc9a71461014757806306c933d81461017757806306fdde03146101a7578063081812fc146101c5578063095ea7b3146101f5575b600080fd5b610161600480360381019061015c9190612354565b6104a5565b60405161016e919061279e565b60405180910390f35b610191600480360381019061018c9190612159565b610587565b60405161019e919061279e565b60405180910390f35b6101af6105a7565b6040516101bc91906127b9565b60405180910390f35b6101df60048036038101906101da91906123e7565b610639565b6040516101ec9190612737565b60405180910390f35b61020f600480360381019061020a9190612318565b61067f565b005b61022b60048036038101906102269190612159565b610797565b604051610238919061279e565b60405180910390f35b61025b600480360381019061025691906121be565b6107b7565b005b610277600480360381019061027291906123a6565b610817565b60405161028491906129bb565b60405180910390f35b610295610986565b6040516102a291906129d6565b60405180910390f35b6102c560048036038101906102c091906121be565b610999565b005b6102e160048036038101906102dc9190612159565b6109b9565b005b6102fd60048036038101906102f891906123e7565b610afa565b60405161030a9190612737565b60405180910390f35b61032d60048036038101906103289190612159565b610bac565b60405161033a91906129bb565b60405180910390f35b61034b610c64565b60405161035891906127b9565b60405180910390f35b61037b60048036038101906103769190612288565b610cf6565b005b6103976004803603810190610392919061220d565b610d0c565b005b6103b360048036038101906103ae91906123e7565b610d6e565b6040516103c091906127b9565b60405180910390f35b6103e360048036038101906103de9190612159565b610e81565b6040516103f091906127b9565b60405180910390f35b610413600480360381019061040e9190612159565b610f21565b60405161042091906127b9565b60405180910390f35b610443600480360381019061043e91906122c4565b610fc1565b005b61045f600480360381019061045a9190612182565b6111b2565b60405161046c919061279e565b60405180910390f35b61048f600480360381019061048a91906123a6565b611246565b60405161049c91906129bb565b60405180910390f35b60007f80ac58cd000000000000000000000000000000000000000000000000000000007bffffffffffffffffffffffffffffffffffffffffffffffffffffffff1916827bffffffffffffffffffffffffffffffffffffffffffffffffffffffff1916148061057057507f5b5e139f000000000000000000000000000000000000000000000000000000007bffffffffffffffffffffffffffffffffffffffffffffffffffffffff1916827bffffffffffffffffffffffffffffffffffffffffffffffffffffffff1916145b80610580575061057f82611274565b5b9050919050565b60086020528060005260406000206000915054906101000a900460ff1681565b6060600080546105b690612c70565b80601f01602080910402602001604051908101604052809291908181526020018280546105e290612c70565b801561062f5780601f106106045761010080835404028352916020019161062f565b820191906000526020600020905b81548152906001019060200180831161061257829003601f168201915b5050505050905090565b6000610644826112de565b6004600083815260200190815260200160002060009054906101000a900473ffffffffffffffffffffffffffffffffffffffff169050919050565b600061068a82610afa565b90508073ffffffffffffffffffffffffffffffffffffffff168373ffffffffffffffffffffffffffffffffffffffff1614156106fb576040517f08c379a00000000000000000000000000000000000000000000000000000000081526004016106f29061297b565b60405180910390fd5b8073ffffffffffffffffffffffffffffffffffffffff1661071a611329565b73ffffffffffffffffffffffffffffffffffffffff161480610749575061074881610743611329565b6111b2565b5b610788576040517f08c379a000000000000000000000000000000000000000000000000000000000815260040161077f906128db565b60405180910390fd5b6107928383611331565b505050565b600b6020528060005260406000206000915054906101000a900460ff1681565b6107c86107c2611329565b826113ea565b610807576040517f08c379a00000000000000000000000000000000000000000000000000000000081526004016107fe9061299b565b60405180910390fd5b61081283838361147f565b505050565b6000600b60003373ffffffffffffffffffffffffffffffffffffffff1673ffffffffffffffffffffffffffffffffffffffff16815260200190815260200160002060009054906101000a900460ff166108a5576040517f08c379a000000000000000000000000000000000000000000000000000000000815260040161089c9061287b565b60405180910390fd5b6108af60076116e6565b60006108bb60076116fc565b90506108c7338261170a565b6108d181846118e4565b82600c60003373ffffffffffffffffffffffffffffffffffffffff1673ffffffffffffffffffffffffffffffffffffffff1681526020019081526020016000209080519060200190610924929190611f7d565b506000600b60003373ffffffffffffffffffffffffffffffffffffffff1673ffffffffffffffffffffffffffffffffffffffff16815260200190815260200160002060006101000a81548160ff02191690831515021790555080915050919050565b600d60149054906101000a900460ff1681565b6109b483838360405180602001604052806000815250610d0c565b505050565b600d60009054906101000a900473ffffffffffffffffffffffffffffffffffffffff1673ffffffffffffffffffffffffffffffffffffffff163373ffffffffffffffffffffffffffffffffffffffff1614610a1357600080fd5b6001600b60008373ffffffffffffffffffffffffffffffffffffffff1673ffffffffffffffffffffffffffffffffffffffff16815260200190815260200160002060006101000a81548160ff021916908315150217905550600860008273ffffffffffffffffffffffffffffffffffffffff1673ffffffffffffffffffffffffffffffffffffffff16815260200190815260200160002060009054906101000a900460ff16610af7576040517f08c379a0000000000000000000000000000000000000000000000000000000008152600401610aee9061293b565b60405180910390fd5b50565b6000806002600084815260200190815260200160002060009054906101000a900473ffffffffffffffffffffffffffffffffffffffff169050600073ffffffffffffffffffffffffffffffffffffffff168173ffffffffffffffffffffffffffffffffffffffff161415610ba3576040517f08c379a0000000000000000000000000000000000000000000000000000000008152600401610b9a9061295b565b60405180910390fd5b80915050919050565b60008073ffffffffffffffffffffffffffffffffffffffff168273ffffffffffffffffffffffffffffffffffffffff161415610c1d576040517f08c379a0000000000000000000000000000000000000000000000000000000008152600401610c149061289b565b60405180910390fd5b600360008373ffffffffffffffffffffffffffffffffffffffff1673ffffffffffffffffffffffffffffffffffffffff168152602001908152602001600020549050919050565b606060018054610c7390612c70565b80601f0160208091040260200160405190810160405280929190818152602001828054610c9f90612c70565b8015610cec5780601f10610cc157610100808354040283529160200191610cec565b820191906000526020600020905b815481529060010190602001808311610ccf57829003601f168201915b5050505050905090565b610d08610d01611329565b8383611958565b5050565b610d1d610d17611329565b836113ea565b610d5c576040517f08c379a0000000000000000000000000000000000000000000000000000000008152600401610d539061299b565b60405180910390fd5b610d6884848484611ac5565b50505050565b6060610d79826112de565b6000600660008481526020019081526020016000208054610d9990612c70565b80601f0160208091040260200160405190810160405280929190818152602001828054610dc590612c70565b8015610e125780601f10610de757610100808354040283529160200191610e12565b820191906000526020600020905b815481529060010190602001808311610df557829003601f168201915b505050505090506000610e23611b21565b9050600081511415610e39578192505050610e7c565b600082511115610e6e578082604051602001610e56929190612713565b60405160208183030381529060405292505050610e7c565b610e7784611b38565b925050505b919050565b60096020528060005260406000206000915090508054610ea090612c70565b80601f0160208091040260200160405190810160405280929190818152602001828054610ecc90612c70565b8015610f195780601f10610eee57610100808354040283529160200191610f19565b820191906000526020600020905b815481529060010190602001808311610efc57829003601f168201915b505050505081565b600c6020528060005260406000206000915090508054610f4090612c70565b80601f0160208091040260200160405190810160405280929190818152602001828054610f6c90612c70565b8015610fb95780601f10610f8e57610100808354040283529160200191610fb9565b820191906000526020600020905b815481529060010190602001808311610f9c57829003601f168201915b505050505081565b600d60009054906101000a900473ffffffffffffffffffffffffffffffffffffffff1673ffffffffffffffffffffffffffffffffffffffff163373ffffffffffffffffffffffffffffffffffffffff161461101b57600080fd5b600860008373ffffffffffffffffffffffffffffffffffffffff1673ffffffffffffffffffffffffffffffffffffffff16815260200190815260200160002060009054906101000a900460ff16156110a8576040517f08c379a000000000000000000000000000000000000000000000000000000000815260040161109f9061291b565b60405180910390fd5b6001600860008473ffffffffffffffffffffffffffffffffffffffff1673ffffffffffffffffffffffffffffffffffffffff16815260200190815260200160002060006101000a81548160ff02191690831515021790555080600960008473ffffffffffffffffffffffffffffffffffffffff1673ffffffffffffffffffffffffffffffffffffffff1681526020019081526020016000209080519060200190611153929190611f7d565b5042600a8260405161116591906126fc565b9081526020016040518091039020819055506001600d60148282829054906101000a900460ff166111969190612b11565b92506101000a81548160ff021916908360ff1602179055505050565b6000600560008473ffffffffffffffffffffffffffffffffffffffff1673ffffffffffffffffffffffffffffffffffffffff16815260200190815260200160002060008373ffffffffffffffffffffffffffffffffffffffff1673ffffffffffffffffffffffffffffffffffffffff16815260200190815260200160002060009054906101000a900460ff16905092915050565b600a818051602081018201805184825260208301602085012081835280955050505050506000915090505481565b60007f01ffc9a7000000000000000000000000000000000000000000000000000000007bffffffffffffffffffffffffffffffffffffffffffffffffffffffff1916827bffffffffffffffffffffffffffffffffffffffffffffffffffffffff1916149050919050565b6112e781611ba0565b611326576040517f08c379a000000000000000000000000000000000000000000000000000000000815260040161131d9061295b565b60405180910390fd5b50565b600033905090565b816004600083815260200190815260200160002060006101000a81548173ffffffffffffffffffffffffffffffffffffffff021916908373ffffffffffffffffffffffffffffffffffffffff160217905550808273ffffffffffffffffffffffffffffffffffffffff166113a483610afa565b73ffffffffffffffffffffffffffffffffffffffff167f8c5be1e5ebec7d5bd14f71427d1e84f3dd0314c0f7b2291e5b200ac8c7c3b92560405160405180910390a45050565b6000806113f683610afa565b90508073ffffffffffffffffffffffffffffffffffffffff168473ffffffffffffffffffffffffffffffffffffffff161480611438575061143781856111b2565b5b8061147657508373ffffffffffffffffffffffffffffffffffffffff1661145e84610639565b73ffffffffffffffffffffffffffffffffffffffff16145b91505092915050565b8273ffffffffffffffffffffffffffffffffffffffff1661149f82610afa565b73ffffffffffffffffffffffffffffffffffffffff16146114f5576040517f08c379a00000000000000000000000000000000000000000000000000000000081526004016114ec906127fb565b60405180910390fd5b600073ffffffffffffffffffffffffffffffffffffffff168273ffffffffffffffffffffffffffffffffffffffff161415611565576040517f08c379a000000000000000000000000000000000000000000000000000000000815260040161155c9061283b565b60405180910390fd5b611570838383611c0c565b61157b600082611331565b6001600360008573ffffffffffffffffffffffffffffffffffffffff1673ffffffffffffffffffffffffffffffffffffffff16815260200190815260200160002060008282546115cb9190612b79565b925050819055506001600360008473ffffffffffffffffffffffffffffffffffffffff1673ffffffffffffffffffffffffffffffffffffffff16815260200190815260200160002060008282546116229190612abb565b92505081905550816002600083815260200190815260200160002060006101000a81548173ffffffffffffffffffffffffffffffffffffffff021916908373ffffffffffffffffffffffffffffffffffffffff160217905550808273ffffffffffffffffffffffffffffffffffffffff168473ffffffffffffffffffffffffffffffffffffffff167fddf252ad1be2c89b69c2b068fc378daa952ba7f163c4a11628f55a4df523b3ef60405160405180910390a46116e1838383611c11565b505050565b6001816000016000828254019250508190555050565b600081600001549050919050565b600073ffffffffffffffffffffffffffffffffffffffff168273ffffffffffffffffffffffffffffffffffffffff16141561177a576040517f08c379a0000000000000000000000000000000000000000000000000000000008152600401611771906128fb565b60405180910390fd5b61178381611ba0565b156117c3576040517f08c379a00000000000000000000000000000000000000000000000000000000081526004016117ba9061281b565b60405180910390fd5b6117cf60008383611c0c565b6001600360008473ffffffffffffffffffffffffffffffffffffffff1673ffffffffffffffffffffffffffffffffffffffff168152602001908152602001600020600082825461181f9190612abb565b92505081905550816002600083815260200190815260200160002060006101000a81548173ffffffffffffffffffffffffffffffffffffffff021916908373ffffffffffffffffffffffffffffffffffffffff160217905550808273ffffffffffffffffffffffffffffffffffffffff16600073ffffffffffffffffffffffffffffffffffffffff167fddf252ad1be2c89b69c2b068fc378daa952ba7f163c4a11628f55a4df523b3ef60405160405180910390a46118e060008383611c11565b5050565b6118ed82611ba0565b61192c576040517f08c379a0000000000000000000000000000000000000000000000000000000008152600401611923906128bb565b60405180910390fd5b80600660008481526020019081526020016000209080519060200190611953929190611f7d565b505050565b8173ffffffffffffffffffffffffffffffffffffffff168373ffffffffffffffffffffffffffffffffffffffff1614156119c7576040517f08c379a00000000000000000000000000000000000000000000000000000000081526004016119be9061285b565b60405180910390fd5b80600560008573ffffffffffffffffffffffffffffffffffffffff1673ffffffffffffffffffffffffffffffffffffffff16815260200190815260200160002060008473ffffffffffffffffffffffffffffffffffffffff1673ffffffffffffffffffffffffffffffffffffffff16815260200190815260200160002060006101000a81548160ff0219169083151502179055508173ffffffffffffffffffffffffffffffffffffffff168373ffffffffffffffffffffffffffffffffffffffff167f17307eab39ab6107e8899845ad3d59bd9653f200f220920489ca2b5937696c3183604051611ab8919061279e565b60405180910390a3505050565b611ad084848461147f565b611adc84848484611c16565b611b1b576040517f08c379a0000000000000000000000000000000000000000000000000000000008152600401611b12906127db565b60405180910390fd5b50505050565b606060405180602001604052806000815250905090565b6060611b43826112de565b6000611b4d611b21565b90506000815111611b6d5760405180602001604052806000815250611b98565b80611b7784611dad565b604051602001611b88929190612713565b6040516020818303038152906040525b915050919050565b60008073ffffffffffffffffffffffffffffffffffffffff166002600084815260200190815260200160002060009054906101000a900473ffffffffffffffffffffffffffffffffffffffff1673ffffffffffffffffffffffffffffffffffffffff1614159050919050565b505050565b505050565b6000611c378473ffffffffffffffffffffffffffffffffffffffff16611f5a565b15611da0578373ffffffffffffffffffffffffffffffffffffffff1663150b7a02611c60611329565b8786866040518563ffffffff1660e01b8152600401611c829493929190612752565b602060405180830381600087803b158015611c9c57600080fd5b505af1925050508015611ccd57506040513d601f19601f82011682018060405250810190611cca919061237d565b60015b611d50573d8060008114611cfd576040519150601f19603f3d011682016040523d82523d6000602084013e611d02565b606091505b50600081511415611d48576040517f08c379a0000000000000000000000000000000000000000000000000000000008152600401611d3f906127db565b60405180910390fd5b805181602001fd5b63150b7a0260e01b7bffffffffffffffffffffffffffffffffffffffffffffffffffffffff1916817bffffffffffffffffffffffffffffffffffffffffffffffffffffffff191614915050611da5565b600190505b949350505050565b60606000821415611df5576040518060400160405280600181526020017f30000000000000000000000000000000000000000000000000000000000000008152509050611f55565b600082905060005b60008214611e27578080611e1090612cd3565b915050600a82611e209190612b48565b9150611dfd565b60008167ffffffffffffffff811115611e69577f4e487b7100000000000000000000000000000000000000000000000000000000600052604160045260246000fd5b6040519080825280601f01601f191660200182016040528015611e9b5781602001600182028036833780820191505090505b5090505b60008514611f4e57600182611eb49190612b79565b9150600a85611ec39190612d1c565b6030611ecf9190612abb565b60f81b818381518110611f0b577f4e487b7100000000000000000000000000000000000000000000000000000000600052603260045260246000fd5b60200101907effffffffffffffffffffffffffffffffffffffffffffffffffffffffffffff1916908160001a905350600a85611f479190612b48565b9450611e9f565b8093505050505b919050565b6000808273ffffffffffffffffffffffffffffffffffffffff163b119050919050565b828054611f8990612c70565b90600052602060002090601f016020900481019282611fab5760008555611ff2565b82601f10611fc457805160ff1916838001178555611ff2565b82800160010185558215611ff2579182015b82811115611ff1578251825591602001919060010190611fd6565b5b509050611fff9190612003565b5090565b5b8082111561201c576000816000905550600101612004565b5090565b600061203361202e84612a16565b6129f1565b90508281526020810184848401111561204b57600080fd5b612056848285612c2e565b509392505050565b600061207161206c84612a47565b6129f1565b90508281526020810184848401111561208957600080fd5b612094848285612c2e565b509392505050565b6000813590506120ab816131b1565b92915050565b6000813590506120c0816131c8565b92915050565b6000813590506120d5816131df565b92915050565b6000815190506120ea816131df565b92915050565b600082601f83011261210157600080fd5b8135612111848260208601612020565b91505092915050565b600082601f83011261212b57600080fd5b813561213b84826020860161205e565b91505092915050565b600081359050612153816131f6565b92915050565b60006020828403121561216b57600080fd5b60006121798482850161209c565b91505092915050565b6000806040838503121561219557600080fd5b60006121a38582860161209c565b92505060206121b48582860161209c565b9150509250929050565b6000806000606084860312156121d357600080fd5b60006121e18682870161209c565b93505060206121f28682870161209c565b925050604061220386828701612144565b9150509250925092565b6000806000806080858703121561222357600080fd5b60006122318782880161209c565b94505060206122428782880161209c565b935050604061225387828801612144565b925050606085013567ffffffffffffffff81111561227057600080fd5b61227c878288016120f0565b91505092959194509250565b6000806040838503121561229b57600080fd5b60006122a98582860161209c565b92505060206122ba858286016120b1565b9150509250929050565b600080604083850312156122d757600080fd5b60006122e58582860161209c565b925050602083013567ffffffffffffffff81111561230257600080fd5b61230e8582860161211a565b9150509250929050565b6000806040838503121561232b57600080fd5b60006123398582860161209c565b925050602061234a85828601612144565b9150509250929050565b60006020828403121561236657600080fd5b6000612374848285016120c6565b91505092915050565b60006020828403121561238f57600080fd5b600061239d848285016120db565b91505092915050565b6000602082840312156123b857600080fd5b600082013567ffffffffffffffff8111156123d257600080fd5b6123de8482850161211a565b91505092915050565b6000602082840312156123f957600080fd5b600061240784828501612144565b91505092915050565b61241981612bad565b82525050565b61242881612bbf565b82525050565b600061243982612a78565b6124438185612a8e565b9350612453818560208601612c3d565b61245c81612e09565b840191505092915050565b600061247282612a83565b61247c8185612a9f565b935061248c818560208601612c3d565b61249581612e09565b840191505092915050565b60006124ab82612a83565b6124b58185612ab0565b93506124c5818560208601612c3d565b80840191505092915050565b60006124de603283612a9f565b91506124e982612e1a565b604082019050919050565b6000612501602583612a9f565b915061250c82612e69565b604082019050919050565b6000612524601c83612a9f565b915061252f82612eb8565b602082019050919050565b6000612547602483612a9f565b915061255282612ee1565b604082019050919050565b600061256a601983612a9f565b915061257582612f30565b602082019050919050565b600061258d601583612a9f565b915061259882612f59565b602082019050919050565b60006125b0602983612a9f565b91506125bb82612f82565b604082019050919050565b60006125d3602e83612a9f565b91506125de82612fd1565b604082019050919050565b60006125f6603e83612a9f565b915061260182613020565b604082019050919050565b6000612619602083612a9f565b91506126248261306f565b602082019050919050565b600061263c601b83612a9f565b915061264782613098565b602082019050919050565b600061265f601783612a9f565b915061266a826130c1565b602082019050919050565b6000612682601883612a9f565b915061268d826130ea565b602082019050919050565b60006126a5602183612a9f565b91506126b082613113565b604082019050919050565b60006126c8602e83612a9f565b91506126d382613162565b604082019050919050565b6126e781612c17565b82525050565b6126f681612c21565b82525050565b600061270882846124a0565b915081905092915050565b600061271f82856124a0565b915061272b82846124a0565b91508190509392505050565b600060208201905061274c6000830184612410565b92915050565b60006080820190506127676000830187612410565b6127746020830186612410565b61278160408301856126de565b8181036060830152612793818461242e565b905095945050505050565b60006020820190506127b3600083018461241f565b92915050565b600060208201905081810360008301526127d38184612467565b905092915050565b600060208201905081810360008301526127f4816124d1565b9050919050565b60006020820190508181036000830152612814816124f4565b9050919050565b6000602082019050818103600083015261283481612517565b9050919050565b600060208201905081810360008301526128548161253a565b9050919050565b600060208201905081810360008301526128748161255d565b9050919050565b6000602082019050818103600083015261289481612580565b9050919050565b600060208201905081810360008301526128b4816125a3565b9050919050565b600060208201905081810360008301526128d4816125c6565b9050919050565b600060208201905081810360008301526128f4816125e9565b9050919050565b600060208201905081810360008301526129148161260c565b9050919050565b600060208201905081810360008301526129348161262f565b9050919050565b6000602082019050818103600083015261295481612652565b9050919050565b6000602082019050818103600083015261297481612675565b9050919050565b6000602082019050818103600083015261299481612698565b9050919050565b600060208201905081810360008301526129b4816126bb565b9050919050565b60006020820190506129d060008301846126de565b92915050565b60006020820190506129eb60008301846126ed565b92915050565b60006129fb612a0c565b9050612a078282612ca2565b919050565b6000604051905090565b600067ffffffffffffffff821115612a3157612a30612dda565b5b612a3a82612e09565b9050602081019050919050565b600067ffffffffffffffff821115612a6257612a61612dda565b5b612a6b82612e09565b9050602081019050919050565b600081519050919050565b600081519050919050565b600082825260208201905092915050565b600082825260208201905092915050565b600081905092915050565b6000612ac682612c17565b9150612ad183612c17565b9250827fffffffffffffffffffffffffffffffffffffffffffffffffffffffffffffffff03821115612b0657612b05612d4d565b5b828201905092915050565b6000612b1c82612c21565b9150612b2783612c21565b92508260ff03821115612b3d57612b3c612d4d565b5b828201905092915050565b6000612b5382612c17565b9150612b5e83612c17565b925082612b6e57612b6d612d7c565b5b828204905092915050565b6000612b8482612c17565b9150612b8f83612c17565b925082821015612ba257612ba1612d4d565b5b828203905092915050565b6000612bb882612bf7565b9050919050565b60008115159050919050565b60007fffffffff0000000000000000000000000000000000000000000000000000000082169050919050565b600073ffffffffffffffffffffffffffffffffffffffff82169050919050565b6000819050919050565b600060ff82169050919050565b82818337600083830152505050565b60005b83811015612c5b578082015181840152602081019050612c40565b83811115612c6a576000848401525b50505050565b60006002820490506001821680612c8857607f821691505b60208210811415612c9c57612c9b612dab565b5b50919050565b612cab82612e09565b810181811067ffffffffffffffff82111715612cca57612cc9612dda565b5b80604052505050565b6000612cde82612c17565b91507fffffffffffffffffffffffffffffffffffffffffffffffffffffffffffffffff821415612d1157612d10612d4d565b5b600182019050919050565b6000612d2782612c17565b9150612d3283612c17565b925082612d4257612d41612d7c565b5b828206905092915050565b7f4e487b7100000000000000000000000000000000000000000000000000000000600052601160045260246000fd5b7f4e487b7100000000000000000000000000000000000000000000000000000000600052601260045260246000fd5b7f4e487b7100000000000000000000000000000000000000000000000000000000600052602260045260246000fd5b7f4e487b7100000000000000000000000000000000000000000000000000000000600052604160045260246000fd5b6000601f19601f8301169050919050565b7f4552433732313a207472616e7366657220746f206e6f6e20455243373231526560008201527f63656976657220696d706c656d656e7465720000000000000000000000000000602082015250565b7f4552433732313a207472616e736665722066726f6d20696e636f72726563742060008201527f6f776e6572000000000000000000000000000000000000000000000000000000602082015250565b7f4552433732313a20746f6b656e20616c7265616479206d696e74656400000000600082015250565b7f4552433732313a207472616e7366657220746f20746865207a65726f2061646460008201527f7265737300000000000000000000000000000000000000000000000000000000602082015250565b7f4552433732313a20617070726f766520746f2063616c6c657200000000000000600082015250565b7f446567726565206e6f7420796574206973737565730000000000000000000000600082015250565b7f4552433732313a2061646472657373207a65726f206973206e6f74206120766160008201527f6c6964206f776e65720000000000000000000000000000000000000000000000602082015250565b7f45524337323155524953746f726167653a2055524920736574206f66206e6f6e60008201527f6578697374656e7420746f6b656e000000000000000000000000000000000000602082015250565b7f4552433732313a20617070726f76652063616c6c6572206973206e6f7420746f60008201527f6b656e206f776e6572206e6f7220617070726f76656420666f7220616c6c0000602082015250565b7f4552433732313a206d696e7420746f20746865207a65726f2061646472657373600082015250565b7f73747564656e7420616c72656164792077686974656c69737465640000000000600082015250565b7f41646472657373206e6f742077686974656c6973746564000000000000000000600082015250565b7f4552433732313a20696e76616c696420746f6b656e2049440000000000000000600082015250565b7f4552433732313a20617070726f76616c20746f2063757272656e74206f776e6560008201527f7200000000000000000000000000000000000000000000000000000000000000602082015250565b7f4552433732313a2063616c6c6572206973206e6f7420746f6b656e206f776e6560008201527f72206e6f7220617070726f766564000000000000000000000000000000000000602082015250565b6131ba81612bad565b81146131c557600080fd5b50565b6131d181612bbf565b81146131dc57600080fd5b50565b6131e881612bcb565b81146131f357600080fd5b50565b6131ff81612c17565b811461320a57600080fd5b5056fea264697066735822122032b8d75133b1f73374f5b1829b9ae7b6070f5e6de2e3445058b42bd4b5b564d764736f6c63430008040033",
    "linkReferences": {},
    "deployedLinkReferences": {}
}