{
  "_format": "hh-sol-artifact-1",
  "contractName": "UniversityContract",
  "sourceName": "contracts/NFTUniversityCertificate.sol",
  "abi": [
    {
      "inputs": [],
      "stateMutability": "nonpayable",
      "type": "constructor"
    },
    {
      "anonymous": false,
      "inputs": [
        {
          "indexed": true,
          "internalType": "address",
          "name": "owner",
          "type": "address"
        },
        {
          "indexed": true,
          "internalType": "address",
          "name": "approved",
          "type": "address"
        },
        {
          "indexed": true,
          "internalType": "uint256",
          "name": "tokenId",
          "type": "uint256"
        }
      ],
      "name": "Approval",
      "type": "event"
    },
    {
      "anonymous": false,
      "inputs": [
        {
          "indexed": true,
          "internalType": "address",
          "name": "owner",
          "type": "address"
        },
        {
          "indexed": true,
          "internalType": "address",
          "name": "operator",
          "type": "address"
        },
        {
          "indexed": false,
          "internalType": "bool",
          "name": "approved",
          "type": "bool"
        }
      ],
      "name": "ApprovalForAll",
      "type": "event"
    },
    {
      "anonymous": false,
      "inputs": [
        {
          "indexed": true,
          "internalType": "address",
          "name": "from",
          "type": "address"
        },
        {
          "indexed": true,
          "internalType": "address",
          "name": "to",
          "type": "address"
        },
        {
          "indexed": true,
          "internalType": "uint256",
          "name": "tokenId",
          "type": "uint256"
        }
      ],
      "name": "Transfer",
      "type": "event"
    },
    {
      "inputs": [
        {
          "internalType": "address",
          "name": "",
          "type": "address"
        }
      ],
      "name": "IssuedNFTs",
      "outputs": [
        {
          "internalType": "bool",
          "name": "",
          "type": "bool"
        }
      ],
      "stateMutability": "view",
      "type": "function"
    },
    {
      "inputs": [
        {
          "internalType": "address",
          "name": "",
          "type": "address"
        }
      ],
      "name": "PersonToNFT",
      "outputs": [
        {
          "internalType": "string",
          "name": "",
          "type": "string"
        }
      ],
      "stateMutability": "view",
      "type": "function"
    },
    {
      "inputs": [
        {
          "internalType": "address",
          "name": "_newAddress",
          "type": "address"
        },
        {
          "internalType": "string",
          "name": "_name",
          "type": "string"
        }
      ],
      "name": "addAddressToWhitelist",
      "outputs": [],
      "stateMutability": "nonpayable",
      "type": "function"
    },
    {
      "inputs": [
        {
          "internalType": "address",
          "name": "to",
          "type": "address"
        },
        {
          "internalType": "uint256",
          "name": "tokenId",
          "type": "uint256"
        }
      ],
      "name": "approve",
      "outputs": [],
      "stateMutability": "nonpayable",
      "type": "function"
    },
    {
      "inputs": [
        {
          "internalType": "address",
          "name": "owner",
          "type": "address"
        }
      ],
      "name": "balanceOf",
      "outputs": [
        {
          "internalType": "uint256",
          "name": "",
          "type": "uint256"
        }
      ],
      "stateMutability": "view",
      "type": "function"
    },
    {
      "inputs": [
        {
          "internalType": "string",
          "name": "tokenURI",
          "type": "string"
        }
      ],
      "name": "claimNFT",
      "outputs": [
        {
          "internalType": "uint256",
          "name": "",
          "type": "uint256"
        }
      ],
      "stateMutability": "nonpayable",
      "type": "function"
    },
    {
      "inputs": [
        {
          "internalType": "uint256",
          "name": "tokenId",
          "type": "uint256"
        }
      ],
      "name": "getApproved",
      "outputs": [
        {
          "internalType": "address",
          "name": "",
          "type": "address"
        }
      ],
      "stateMutability": "view",
      "type": "function"
    },
    {
      "inputs": [],
      "name": "getTokenId",
      "outputs": [
        {
          "internalType": "uint256",
          "name": "",
          "type": "uint256"
        }
      ],
      "stateMutability": "view",
      "type": "function"
    },
    {
      "inputs": [
        {
          "internalType": "address",
          "name": "owner",
          "type": "address"
        },
        {
          "internalType": "address",
          "name": "operator",
          "type": "address"
        }
      ],
      "name": "isApprovedForAll",
      "outputs": [
        {
          "internalType": "bool",
          "name": "",
          "type": "bool"
        }
      ],
      "stateMutability": "view",
      "type": "function"
    },
    {
      "inputs": [
        {
          "internalType": "address",
          "name": "to",
          "type": "address"
        }
      ],
      "name": "issueNFT",
      "outputs": [],
      "stateMutability": "nonpayable",
      "type": "function"
    },
    {
      "inputs": [],
      "name": "name",
      "outputs": [
        {
          "internalType": "string",
          "name": "",
          "type": "string"
        }
      ],
      "stateMutability": "view",
      "type": "function"
    },
    {
      "inputs": [],
      "name": "numAddressesWhitelisted",
      "outputs": [
        {
          "internalType": "uint8",
          "name": "",
          "type": "uint8"
        }
      ],
      "stateMutability": "view",
      "type": "function"
    },
    {
      "inputs": [
        {
          "internalType": "uint256",
          "name": "tokenId",
          "type": "uint256"
        }
      ],
      "name": "ownerOf",
      "outputs": [
        {
          "internalType": "address",
          "name": "",
          "type": "address"
        }
      ],
      "stateMutability": "view",
      "type": "function"
    },
    {
      "inputs": [
        {
          "internalType": "address",
          "name": "from",
          "type": "address"
        },
        {
          "internalType": "address",
          "name": "to",
          "type": "address"
        },
        {
          "internalType": "uint256",
          "name": "tokenId",
          "type": "uint256"
        }
      ],
      "name": "safeTransferFrom",
      "outputs": [],
      "stateMutability": "nonpayable",
      "type": "function"
    },
    {
      "inputs": [
        {
          "internalType": "address",
          "name": "from",
          "type": "address"
        },
        {
          "internalType": "address",
          "name": "to",
          "type": "address"
        },
        {
          "internalType": "uint256",
          "name": "tokenId",
          "type": "uint256"
        },
        {
          "internalType": "bytes",
          "name": "data",
          "type": "bytes"
        }
      ],
      "name": "safeTransferFrom",
      "outputs": [],
      "stateMutability": "nonpayable",
      "type": "function"
    },
    {
      "inputs": [
        {
          "internalType": "address",
          "name": "operator",
          "type": "address"
        },
        {
          "internalType": "bool",
          "name": "approved",
          "type": "bool"
        }
      ],
      "name": "setApprovalForAll",
      "outputs": [],
      "stateMutability": "nonpayable",
      "type": "function"
    },
    {
      "inputs": [
        {
          "internalType": "address",
          "name": "",
          "type": "address"
        }
      ],
      "name": "studentName",
      "outputs": [
        {
          "internalType": "string",
          "name": "",
          "type": "string"
        }
      ],
      "stateMutability": "view",
      "type": "function"
    },
    {
      "inputs": [
        {
          "internalType": "bytes4",
          "name": "interfaceId",
          "type": "bytes4"
        }
      ],
      "name": "supportsInterface",
      "outputs": [
        {
          "internalType": "bool",
          "name": "",
          "type": "bool"
        }
      ],
      "stateMutability": "view",
      "type": "function"
    },
    {
      "inputs": [],
      "name": "symbol",
      "outputs": [
        {
          "internalType": "string",
          "name": "",
          "type": "string"
        }
      ],
      "stateMutability": "view",
      "type": "function"
    },
    {
      "inputs": [
        {
          "internalType": "string",
          "name": "",
          "type": "string"
        }
      ],
      "name": "timeAddressAdded",
      "outputs": [
        {
          "internalType": "uint256",
          "name": "",
          "type": "uint256"
        }
      ],
      "stateMutability": "view",
      "type": "function"
    },
    {
      "inputs": [],
      "name": "tokenId",
      "outputs": [
        {
          "internalType": "uint256",
          "name": "",
          "type": "uint256"
        }
      ],
      "stateMutability": "view",
      "type": "function"
    },
    {
      "inputs": [
        {
          "internalType": "uint256",
          "name": "tokenId",
          "type": "uint256"
        }
      ],
      "name": "tokenURI",
      "outputs": [
        {
          "internalType": "string",
          "name": "",
          "type": "string"
        }
      ],
      "stateMutability": "view",
      "type": "function"
    },
    {
      "inputs": [
        {
          "internalType": "address",
          "name": "from",
          "type": "address"
        },
        {
          "internalType": "address",
          "name": "to",
          "type": "address"
        },
        {
          "internalType": "uint256",
          "name": "tokenId",
          "type": "uint256"
        }
      ],
      "name": "transferFrom",
      "outputs": [],
      "stateMutability": "nonpayable",
      "type": "function"
    },
    {
      "inputs": [
        {
          "internalType": "address",
          "name": "",
          "type": "address"
        }
      ],
      "name": "whitelistedAddresses",
      "outputs": [
        {
          "internalType": "bool",
          "name": "",
          "type": "bool"
        }
      ],
      "stateMutability": "view",
      "type": "function"
    }
  ],
  "bytecode": "0x60806040523480156200001157600080fd5b506040518060400160405280600781526020017f414243204e4654000000000000000000000000000000000000000000000000008152506040518060400160405280600681526020017f4142434e46540000000000000000000000000000000000000000000000000000815250816000908051906020019062000096929190620000f9565b508060019080519060200190620000af929190620000f9565b50505033600d60006101000a81548173ffffffffffffffffffffffffffffffffffffffff021916908373ffffffffffffffffffffffffffffffffffffffff1602179055506200020e565b8280546200010790620001a9565b90600052602060002090601f0160209004810192826200012b576000855562000177565b82601f106200014657805160ff191683800117855562000177565b8280016001018555821562000177579182015b828111156200017657825182559160200191906001019062000159565b5b5090506200018691906200018a565b5090565b5b80821115620001a55760008160009055506001016200018b565b5090565b60006002820490506001821680620001c257607f821691505b60208210811415620001d957620001d8620001df565b5b50919050565b7f4e487b7100000000000000000000000000000000000000000000000000000000600052602260045260246000fd5b6132ac806200021e6000396000f3fe608060405234801561001057600080fd5b50600436106101585760003560e01c8063662c8c0b116100c3578063b88d4fde1161007c578063b88d4fde146103ff578063c87b56dd1461041b578063cd48622a1461044b578063e6d4d2171461047b578063e985e9c514610497578063fd8969b8146104c757610158565b8063662c8c0b1461031957806370a082311461033557806395d89b4114610365578063a22cb46514610383578063a2c0d0401461039f578063b7366591146103cf57610158565b80631172075611610115578063117207561461024557806317d70f7c1461027557806323b872dd146102935780634011d7cd146102af57806342842e0e146102cd5780636352211e146102e957610158565b8063010a38f51461015d57806301ffc9a71461017b57806306c933d8146101ab57806306fdde03146101db578063081812fc146101f9578063095ea7b314610229575b600080fd5b6101656104f7565b6040516101729190612a24565b60405180910390f35b610195600480360381019061019091906123bd565b610501565b6040516101a29190612807565b60405180910390f35b6101c560048036038101906101c091906121c2565b6105e3565b6040516101d29190612807565b60405180910390f35b6101e3610603565b6040516101f09190612822565b60405180910390f35b610213600480360381019061020e9190612450565b610695565b60405161022091906127a0565b60405180910390f35b610243600480360381019061023e9190612381565b6106db565b005b61025f600480360381019061025a919061240f565b6107f3565b60405161026c9190612a24565b60405180910390f35b61027d610969565b60405161028a9190612a24565b60405180910390f35b6102ad60048036038101906102a89190612227565b61096f565b005b6102b76109cf565b6040516102c49190612a3f565b60405180910390f35b6102e760048036038101906102e29190612227565b6109e2565b005b61030360048036038101906102fe9190612450565b610a02565b60405161031091906127a0565b60405180910390f35b610333600480360381019061032e91906121c2565b610ab4565b005b61034f600480360381019061034a91906121c2565b610bf5565b60405161035c9190612a24565b60405180910390f35b61036d610cad565b60405161037a9190612822565b60405180910390f35b61039d600480360381019061039891906122f1565b610d3f565b005b6103b960048036038101906103b491906121c2565b610d55565b6040516103c69190612822565b60405180910390f35b6103e960048036038101906103e491906121c2565b610df5565b6040516103f69190612807565b60405180910390f35b61041960048036038101906104149190612276565b610e15565b005b61043560048036038101906104309190612450565b610e77565b6040516104429190612822565b60405180910390f35b610465600480360381019061046091906121c2565b610f8a565b6040516104729190612822565b60405180910390f35b6104956004803603810190610490919061232d565b61102a565b005b6104b160048036038101906104ac91906121eb565b61121b565b6040516104be9190612807565b60405180910390f35b6104e160048036038101906104dc919061240f565b6112af565b6040516104ee9190612a24565b60405180910390f35b6000600e54905090565b60007f80ac58cd000000000000000000000000000000000000000000000000000000007bffffffffffffffffffffffffffffffffffffffffffffffffffffffff1916827bffffffffffffffffffffffffffffffffffffffffffffffffffffffff191614806105cc57507f5b5e139f000000000000000000000000000000000000000000000000000000007bffffffffffffffffffffffffffffffffffffffffffffffffffffffff1916827bffffffffffffffffffffffffffffffffffffffffffffffffffffffff1916145b806105dc57506105db826112dd565b5b9050919050565b60086020528060005260406000206000915054906101000a900460ff1681565b60606000805461061290612cd9565b80601f016020809104026020016040519081016040528092919081815260200182805461063e90612cd9565b801561068b5780601f106106605761010080835404028352916020019161068b565b820191906000526020600020905b81548152906001019060200180831161066e57829003601f168201915b5050505050905090565b60006106a082611347565b6004600083815260200190815260200160002060009054906101000a900473ffffffffffffffffffffffffffffffffffffffff169050919050565b60006106e682610a02565b90508073ffffffffffffffffffffffffffffffffffffffff168373ffffffffffffffffffffffffffffffffffffffff161415610757576040517f08c379a000000000000000000000000000000000000000000000000000000000815260040161074e906129e4565b60405180910390fd5b8073ffffffffffffffffffffffffffffffffffffffff16610776611392565b73ffffffffffffffffffffffffffffffffffffffff1614806107a557506107a48161079f611392565b61121b565b5b6107e4576040517f08c379a00000000000000000000000000000000000000000000000000000000081526004016107db90612924565b60405180910390fd5b6107ee838361139a565b505050565b6000600b60003373ffffffffffffffffffffffffffffffffffffffff1673ffffffffffffffffffffffffffffffffffffffff16815260200190815260200160002060009054906101000a900460ff16610881576040517f08c379a000000000000000000000000000000000000000000000000000000000815260040161087890612984565b60405180910390fd5b61088b6007611453565b60006108976007611469565b905080600e819055506108aa3382611477565b6108b48184611651565b82600c60003373ffffffffffffffffffffffffffffffffffffffff1673ffffffffffffffffffffffffffffffffffffffff1681526020019081526020016000209080519060200190610907929190611fe6565b506000600b60003373ffffffffffffffffffffffffffffffffffffffff1673ffffffffffffffffffffffffffffffffffffffff16815260200190815260200160002060006101000a81548160ff02191690831515021790555080915050919050565b600e5481565b61098061097a611392565b826116c5565b6109bf576040517f08c379a00000000000000000000000000000000000000000000000000000000081526004016109b690612a04565b60405180910390fd5b6109ca83838361175a565b505050565b600f60009054906101000a900460ff1681565b6109fd83838360405180602001604052806000815250610e15565b505050565b6000806002600084815260200190815260200160002060009054906101000a900473ffffffffffffffffffffffffffffffffffffffff169050600073ffffffffffffffffffffffffffffffffffffffff168173ffffffffffffffffffffffffffffffffffffffff161415610aab576040517f08c379a0000000000000000000000000000000000000000000000000000000008152600401610aa2906129c4565b60405180910390fd5b80915050919050565b600d60009054906101000a900473ffffffffffffffffffffffffffffffffffffffff1673ffffffffffffffffffffffffffffffffffffffff163373ffffffffffffffffffffffffffffffffffffffff1614610b0e57600080fd5b6001600b60008373ffffffffffffffffffffffffffffffffffffffff1673ffffffffffffffffffffffffffffffffffffffff16815260200190815260200160002060006101000a81548160ff021916908315150217905550600860008273ffffffffffffffffffffffffffffffffffffffff1673ffffffffffffffffffffffffffffffffffffffff16815260200190815260200160002060009054906101000a900460ff16610bf2576040517f08c379a0000000000000000000000000000000000000000000000000000000008152600401610be9906129a4565b60405180910390fd5b50565b60008073ffffffffffffffffffffffffffffffffffffffff168273ffffffffffffffffffffffffffffffffffffffff161415610c66576040517f08c379a0000000000000000000000000000000000000000000000000000000008152600401610c5d906128e4565b60405180910390fd5b600360008373ffffffffffffffffffffffffffffffffffffffff1673ffffffffffffffffffffffffffffffffffffffff168152602001908152602001600020549050919050565b606060018054610cbc90612cd9565b80601f0160208091040260200160405190810160405280929190818152602001828054610ce890612cd9565b8015610d355780601f10610d0a57610100808354040283529160200191610d35565b820191906000526020600020905b815481529060010190602001808311610d1857829003601f168201915b5050505050905090565b610d51610d4a611392565b83836119c1565b5050565b600c6020528060005260406000206000915090508054610d7490612cd9565b80601f0160208091040260200160405190810160405280929190818152602001828054610da090612cd9565b8015610ded5780601f10610dc257610100808354040283529160200191610ded565b820191906000526020600020905b815481529060010190602001808311610dd057829003601f168201915b505050505081565b600b6020528060005260406000206000915054906101000a900460ff1681565b610e26610e20611392565b836116c5565b610e65576040517f08c379a0000000000000000000000000000000000000000000000000000000008152600401610e5c90612a04565b60405180910390fd5b610e7184848484611b2e565b50505050565b6060610e8282611347565b6000600660008481526020019081526020016000208054610ea290612cd9565b80601f0160208091040260200160405190810160405280929190818152602001828054610ece90612cd9565b8015610f1b5780601f10610ef057610100808354040283529160200191610f1b565b820191906000526020600020905b815481529060010190602001808311610efe57829003601f168201915b505050505090506000610f2c611b8a565b9050600081511415610f42578192505050610f85565b600082511115610f77578082604051602001610f5f92919061277c565b60405160208183030381529060405292505050610f85565b610f8084611ba1565b925050505b919050565b60096020528060005260406000206000915090508054610fa990612cd9565b80601f0160208091040260200160405190810160405280929190818152602001828054610fd590612cd9565b80156110225780601f10610ff757610100808354040283529160200191611022565b820191906000526020600020905b81548152906001019060200180831161100557829003601f168201915b505050505081565b600d60009054906101000a900473ffffffffffffffffffffffffffffffffffffffff1673ffffffffffffffffffffffffffffffffffffffff163373ffffffffffffffffffffffffffffffffffffffff161461108457600080fd5b600860008373ffffffffffffffffffffffffffffffffffffffff1673ffffffffffffffffffffffffffffffffffffffff16815260200190815260200160002060009054906101000a900460ff1615611111576040517f08c379a000000000000000000000000000000000000000000000000000000000815260040161110890612964565b60405180910390fd5b6001600860008473ffffffffffffffffffffffffffffffffffffffff1673ffffffffffffffffffffffffffffffffffffffff16815260200190815260200160002060006101000a81548160ff02191690831515021790555080600960008473ffffffffffffffffffffffffffffffffffffffff1673ffffffffffffffffffffffffffffffffffffffff16815260200190815260200160002090805190602001906111bc929190611fe6565b5042600a826040516111ce9190612765565b9081526020016040518091039020819055506001600f60008282829054906101000a900460ff166111ff9190612b7a565b92506101000a81548160ff021916908360ff1602179055505050565b6000600560008473ffffffffffffffffffffffffffffffffffffffff1673ffffffffffffffffffffffffffffffffffffffff16815260200190815260200160002060008373ffffffffffffffffffffffffffffffffffffffff1673ffffffffffffffffffffffffffffffffffffffff16815260200190815260200160002060009054906101000a900460ff16905092915050565b600a818051602081018201805184825260208301602085012081835280955050505050506000915090505481565b60007f01ffc9a7000000000000000000000000000000000000000000000000000000007bffffffffffffffffffffffffffffffffffffffffffffffffffffffff1916827bffffffffffffffffffffffffffffffffffffffffffffffffffffffff1916149050919050565b61135081611c09565b61138f576040517f08c379a0000000000000000000000000000000000000000000000000000000008152600401611386906129c4565b60405180910390fd5b50565b600033905090565b816004600083815260200190815260200160002060006101000a81548173ffffffffffffffffffffffffffffffffffffffff021916908373ffffffffffffffffffffffffffffffffffffffff160217905550808273ffffffffffffffffffffffffffffffffffffffff1661140d83610a02565b73ffffffffffffffffffffffffffffffffffffffff167f8c5be1e5ebec7d5bd14f71427d1e84f3dd0314c0f7b2291e5b200ac8c7c3b92560405160405180910390a45050565b6001816000016000828254019250508190555050565b600081600001549050919050565b600073ffffffffffffffffffffffffffffffffffffffff168273ffffffffffffffffffffffffffffffffffffffff1614156114e7576040517f08c379a00000000000000000000000000000000000000000000000000000000081526004016114de90612944565b60405180910390fd5b6114f081611c09565b15611530576040517f08c379a000000000000000000000000000000000000000000000000000000000815260040161152790612884565b60405180910390fd5b61153c60008383611c75565b6001600360008473ffffffffffffffffffffffffffffffffffffffff1673ffffffffffffffffffffffffffffffffffffffff168152602001908152602001600020600082825461158c9190612b24565b92505081905550816002600083815260200190815260200160002060006101000a81548173ffffffffffffffffffffffffffffffffffffffff021916908373ffffffffffffffffffffffffffffffffffffffff160217905550808273ffffffffffffffffffffffffffffffffffffffff16600073ffffffffffffffffffffffffffffffffffffffff167fddf252ad1be2c89b69c2b068fc378daa952ba7f163c4a11628f55a4df523b3ef60405160405180910390a461164d60008383611c7a565b5050565b61165a82611c09565b611699576040517f08c379a000000000000000000000000000000000000000000000000000000000815260040161169090612904565b60405180910390fd5b806006600084815260200190815260200160002090805190602001906116c0929190611fe6565b505050565b6000806116d183610a02565b90508073ffffffffffffffffffffffffffffffffffffffff168473ffffffffffffffffffffffffffffffffffffffff1614806117135750611712818561121b565b5b8061175157508373ffffffffffffffffffffffffffffffffffffffff1661173984610695565b73ffffffffffffffffffffffffffffffffffffffff16145b91505092915050565b8273ffffffffffffffffffffffffffffffffffffffff1661177a82610a02565b73ffffffffffffffffffffffffffffffffffffffff16146117d0576040517f08c379a00000000000000000000000000000000000000000000000000000000081526004016117c790612864565b60405180910390fd5b600073ffffffffffffffffffffffffffffffffffffffff168273ffffffffffffffffffffffffffffffffffffffff161415611840576040517f08c379a0000000000000000000000000000000000000000000000000000000008152600401611837906128a4565b60405180910390fd5b61184b838383611c75565b61185660008261139a565b6001600360008573ffffffffffffffffffffffffffffffffffffffff1673ffffffffffffffffffffffffffffffffffffffff16815260200190815260200160002060008282546118a69190612be2565b925050819055506001600360008473ffffffffffffffffffffffffffffffffffffffff1673ffffffffffffffffffffffffffffffffffffffff16815260200190815260200160002060008282546118fd9190612b24565b92505081905550816002600083815260200190815260200160002060006101000a81548173ffffffffffffffffffffffffffffffffffffffff021916908373ffffffffffffffffffffffffffffffffffffffff160217905550808273ffffffffffffffffffffffffffffffffffffffff168473ffffffffffffffffffffffffffffffffffffffff167fddf252ad1be2c89b69c2b068fc378daa952ba7f163c4a11628f55a4df523b3ef60405160405180910390a46119bc838383611c7a565b505050565b8173ffffffffffffffffffffffffffffffffffffffff168373ffffffffffffffffffffffffffffffffffffffff161415611a30576040517f08c379a0000000000000000000000000000000000000000000000000000000008152600401611a27906128c4565b60405180910390fd5b80600560008573ffffffffffffffffffffffffffffffffffffffff1673ffffffffffffffffffffffffffffffffffffffff16815260200190815260200160002060008473ffffffffffffffffffffffffffffffffffffffff1673ffffffffffffffffffffffffffffffffffffffff16815260200190815260200160002060006101000a81548160ff0219169083151502179055508173ffffffffffffffffffffffffffffffffffffffff168373ffffffffffffffffffffffffffffffffffffffff167f17307eab39ab6107e8899845ad3d59bd9653f200f220920489ca2b5937696c3183604051611b219190612807565b60405180910390a3505050565b611b3984848461175a565b611b4584848484611c7f565b611b84576040517f08c379a0000000000000000000000000000000000000000000000000000000008152600401611b7b90612844565b60405180910390fd5b50505050565b606060405180602001604052806000815250905090565b6060611bac82611347565b6000611bb6611b8a565b90506000815111611bd65760405180602001604052806000815250611c01565b80611be084611e16565b604051602001611bf192919061277c565b6040516020818303038152906040525b915050919050565b60008073ffffffffffffffffffffffffffffffffffffffff166002600084815260200190815260200160002060009054906101000a900473ffffffffffffffffffffffffffffffffffffffff1673ffffffffffffffffffffffffffffffffffffffff1614159050919050565b505050565b505050565b6000611ca08473ffffffffffffffffffffffffffffffffffffffff16611fc3565b15611e09578373ffffffffffffffffffffffffffffffffffffffff1663150b7a02611cc9611392565b8786866040518563ffffffff1660e01b8152600401611ceb94939291906127bb565b602060405180830381600087803b158015611d0557600080fd5b505af1925050508015611d3657506040513d601f19601f82011682018060405250810190611d3391906123e6565b60015b611db9573d8060008114611d66576040519150601f19603f3d011682016040523d82523d6000602084013e611d6b565b606091505b50600081511415611db1576040517f08c379a0000000000000000000000000000000000000000000000000000000008152600401611da890612844565b60405180910390fd5b805181602001fd5b63150b7a0260e01b7bffffffffffffffffffffffffffffffffffffffffffffffffffffffff1916817bffffffffffffffffffffffffffffffffffffffffffffffffffffffff191614915050611e0e565b600190505b949350505050565b60606000821415611e5e576040518060400160405280600181526020017f30000000000000000000000000000000000000000000000000000000000000008152509050611fbe565b600082905060005b60008214611e90578080611e7990612d3c565b915050600a82611e899190612bb1565b9150611e66565b60008167ffffffffffffffff811115611ed2577f4e487b7100000000000000000000000000000000000000000000000000000000600052604160045260246000fd5b6040519080825280601f01601f191660200182016040528015611f045781602001600182028036833780820191505090505b5090505b60008514611fb757600182611f1d9190612be2565b9150600a85611f2c9190612d85565b6030611f389190612b24565b60f81b818381518110611f74577f4e487b7100000000000000000000000000000000000000000000000000000000600052603260045260246000fd5b60200101907effffffffffffffffffffffffffffffffffffffffffffffffffffffffffffff1916908160001a905350600a85611fb09190612bb1565b9450611f08565b8093505050505b919050565b6000808273ffffffffffffffffffffffffffffffffffffffff163b119050919050565b828054611ff290612cd9565b90600052602060002090601f016020900481019282612014576000855561205b565b82601f1061202d57805160ff191683800117855561205b565b8280016001018555821561205b579182015b8281111561205a57825182559160200191906001019061203f565b5b509050612068919061206c565b5090565b5b8082111561208557600081600090555060010161206d565b5090565b600061209c61209784612a7f565b612a5a565b9050828152602081018484840111156120b457600080fd5b6120bf848285612c97565b509392505050565b60006120da6120d584612ab0565b612a5a565b9050828152602081018484840111156120f257600080fd5b6120fd848285612c97565b509392505050565b6000813590506121148161321a565b92915050565b60008135905061212981613231565b92915050565b60008135905061213e81613248565b92915050565b60008151905061215381613248565b92915050565b600082601f83011261216a57600080fd5b813561217a848260208601612089565b91505092915050565b600082601f83011261219457600080fd5b81356121a48482602086016120c7565b91505092915050565b6000813590506121bc8161325f565b92915050565b6000602082840312156121d457600080fd5b60006121e284828501612105565b91505092915050565b600080604083850312156121fe57600080fd5b600061220c85828601612105565b925050602061221d85828601612105565b9150509250929050565b60008060006060848603121561223c57600080fd5b600061224a86828701612105565b935050602061225b86828701612105565b925050604061226c868287016121ad565b9150509250925092565b6000806000806080858703121561228c57600080fd5b600061229a87828801612105565b94505060206122ab87828801612105565b93505060406122bc878288016121ad565b925050606085013567ffffffffffffffff8111156122d957600080fd5b6122e587828801612159565b91505092959194509250565b6000806040838503121561230457600080fd5b600061231285828601612105565b92505060206123238582860161211a565b9150509250929050565b6000806040838503121561234057600080fd5b600061234e85828601612105565b925050602083013567ffffffffffffffff81111561236b57600080fd5b61237785828601612183565b9150509250929050565b6000806040838503121561239457600080fd5b60006123a285828601612105565b92505060206123b3858286016121ad565b9150509250929050565b6000602082840312156123cf57600080fd5b60006123dd8482850161212f565b91505092915050565b6000602082840312156123f857600080fd5b600061240684828501612144565b91505092915050565b60006020828403121561242157600080fd5b600082013567ffffffffffffffff81111561243b57600080fd5b61244784828501612183565b91505092915050565b60006020828403121561246257600080fd5b6000612470848285016121ad565b91505092915050565b61248281612c16565b82525050565b61249181612c28565b82525050565b60006124a282612ae1565b6124ac8185612af7565b93506124bc818560208601612ca6565b6124c581612e72565b840191505092915050565b60006124db82612aec565b6124e58185612b08565b93506124f5818560208601612ca6565b6124fe81612e72565b840191505092915050565b600061251482612aec565b61251e8185612b19565b935061252e818560208601612ca6565b80840191505092915050565b6000612547603283612b08565b915061255282612e83565b604082019050919050565b600061256a602583612b08565b915061257582612ed2565b604082019050919050565b600061258d601c83612b08565b915061259882612f21565b602082019050919050565b60006125b0602483612b08565b91506125bb82612f4a565b604082019050919050565b60006125d3601983612b08565b91506125de82612f99565b602082019050919050565b60006125f6602983612b08565b915061260182612fc2565b604082019050919050565b6000612619602e83612b08565b915061262482613011565b604082019050919050565b600061263c603e83612b08565b915061264782613060565b604082019050919050565b600061265f602083612b08565b915061266a826130af565b602082019050919050565b6000612682601b83612b08565b915061268d826130d8565b602082019050919050565b60006126a5601583612b08565b91506126b082613101565b602082019050919050565b60006126c8601783612b08565b91506126d38261312a565b602082019050919050565b60006126eb601883612b08565b91506126f682613153565b602082019050919050565b600061270e602183612b08565b91506127198261317c565b604082019050919050565b6000612731602e83612b08565b915061273c826131cb565b604082019050919050565b61275081612c80565b82525050565b61275f81612c8a565b82525050565b60006127718284612509565b915081905092915050565b60006127888285612509565b91506127948284612509565b91508190509392505050565b60006020820190506127b56000830184612479565b92915050565b60006080820190506127d06000830187612479565b6127dd6020830186612479565b6127ea6040830185612747565b81810360608301526127fc8184612497565b905095945050505050565b600060208201905061281c6000830184612488565b92915050565b6000602082019050818103600083015261283c81846124d0565b905092915050565b6000602082019050818103600083015261285d8161253a565b9050919050565b6000602082019050818103600083015261287d8161255d565b9050919050565b6000602082019050818103600083015261289d81612580565b9050919050565b600060208201905081810360008301526128bd816125a3565b9050919050565b600060208201905081810360008301526128dd816125c6565b9050919050565b600060208201905081810360008301526128fd816125e9565b9050919050565b6000602082019050818103600083015261291d8161260c565b9050919050565b6000602082019050818103600083015261293d8161262f565b9050919050565b6000602082019050818103600083015261295d81612652565b9050919050565b6000602082019050818103600083015261297d81612675565b9050919050565b6000602082019050818103600083015261299d81612698565b9050919050565b600060208201905081810360008301526129bd816126bb565b9050919050565b600060208201905081810360008301526129dd816126de565b9050919050565b600060208201905081810360008301526129fd81612701565b9050919050565b60006020820190508181036000830152612a1d81612724565b9050919050565b6000602082019050612a396000830184612747565b92915050565b6000602082019050612a546000830184612756565b92915050565b6000612a64612a75565b9050612a708282612d0b565b919050565b6000604051905090565b600067ffffffffffffffff821115612a9a57612a99612e43565b5b612aa382612e72565b9050602081019050919050565b600067ffffffffffffffff821115612acb57612aca612e43565b5b612ad482612e72565b9050602081019050919050565b600081519050919050565b600081519050919050565b600082825260208201905092915050565b600082825260208201905092915050565b600081905092915050565b6000612b2f82612c80565b9150612b3a83612c80565b9250827fffffffffffffffffffffffffffffffffffffffffffffffffffffffffffffffff03821115612b6f57612b6e612db6565b5b828201905092915050565b6000612b8582612c8a565b9150612b9083612c8a565b92508260ff03821115612ba657612ba5612db6565b5b828201905092915050565b6000612bbc82612c80565b9150612bc783612c80565b925082612bd757612bd6612de5565b5b828204905092915050565b6000612bed82612c80565b9150612bf883612c80565b925082821015612c0b57612c0a612db6565b5b828203905092915050565b6000612c2182612c60565b9050919050565b60008115159050919050565b60007fffffffff0000000000000000000000000000000000000000000000000000000082169050919050565b600073ffffffffffffffffffffffffffffffffffffffff82169050919050565b6000819050919050565b600060ff82169050919050565b82818337600083830152505050565b60005b83811015612cc4578082015181840152602081019050612ca9565b83811115612cd3576000848401525b50505050565b60006002820490506001821680612cf157607f821691505b60208210811415612d0557612d04612e14565b5b50919050565b612d1482612e72565b810181811067ffffffffffffffff82111715612d3357612d32612e43565b5b80604052505050565b6000612d4782612c80565b91507fffffffffffffffffffffffffffffffffffffffffffffffffffffffffffffffff821415612d7a57612d79612db6565b5b600182019050919050565b6000612d9082612c80565b9150612d9b83612c80565b925082612dab57612daa612de5565b5b828206905092915050565b7f4e487b7100000000000000000000000000000000000000000000000000000000600052601160045260246000fd5b7f4e487b7100000000000000000000000000000000000000000000000000000000600052601260045260246000fd5b7f4e487b7100000000000000000000000000000000000000000000000000000000600052602260045260246000fd5b7f4e487b7100000000000000000000000000000000000000000000000000000000600052604160045260246000fd5b6000601f19601f8301169050919050565b7f4552433732313a207472616e7366657220746f206e6f6e20455243373231526560008201527f63656976657220696d706c656d656e7465720000000000000000000000000000602082015250565b7f4552433732313a207472616e736665722066726f6d20696e636f72726563742060008201527f6f776e6572000000000000000000000000000000000000000000000000000000602082015250565b7f4552433732313a20746f6b656e20616c7265616479206d696e74656400000000600082015250565b7f4552433732313a207472616e7366657220746f20746865207a65726f2061646460008201527f7265737300000000000000000000000000000000000000000000000000000000602082015250565b7f4552433732313a20617070726f766520746f2063616c6c657200000000000000600082015250565b7f4552433732313a2061646472657373207a65726f206973206e6f74206120766160008201527f6c6964206f776e65720000000000000000000000000000000000000000000000602082015250565b7f45524337323155524953746f726167653a2055524920736574206f66206e6f6e60008201527f6578697374656e7420746f6b656e000000000000000000000000000000000000602082015250565b7f4552433732313a20617070726f76652063616c6c6572206973206e6f7420746f60008201527f6b656e206f776e6572206e6f7220617070726f76656420666f7220616c6c0000602082015250565b7f4552433732313a206d696e7420746f20746865207a65726f2061646472657373600082015250565b7f73747564656e7420616c72656164792077686974656c69737465640000000000600082015250565b7f446567726565206e6f7420796574206973737565640000000000000000000000600082015250565b7f41646472657373206e6f742077686974656c6973746564000000000000000000600082015250565b7f4552433732313a20696e76616c696420746f6b656e2049440000000000000000600082015250565b7f4552433732313a20617070726f76616c20746f2063757272656e74206f776e6560008201527f7200000000000000000000000000000000000000000000000000000000000000602082015250565b7f4552433732313a2063616c6c6572206973206e6f7420746f6b656e206f776e6560008201527f72206e6f7220617070726f766564000000000000000000000000000000000000602082015250565b61322381612c16565b811461322e57600080fd5b50565b61323a81612c28565b811461324557600080fd5b50565b61325181612c34565b811461325c57600080fd5b50565b61326881612c80565b811461327357600080fd5b5056fea2646970667358221220c197a0e71c72e51e1d5b14898dceaae1ecf20d7687097c1a67e32ac8109bcabf64736f6c63430008040033",
  "linkReferences": {},
  "deployedLinkReferences": {}
}